:100000000C942A000C943C000C943C000C94570D6A
:100010000C943C000C943C000C943C000C943C0070
:100020000C943C000C943C000C943C000C943C0060
:100030000C943C000C943C000C943C000C943C0050
:100040000C943C000C943C000C943C000C943C0040
:100050000C943C0011241FBECFE5D4E0DEBFCDBF21
:1000600010E0A0E6B0E001C01D92AA37B107E1F7A9
:100070000E94D4130C944F140C940000DF93CF9380
:1000800000D000D00F92CDB7DEB79B838A838A81E0
:100090009B81009719F481E089839DC0EA81FB81EF
:1000A0008081282F30E03D832C838C819D8181309D
:1000B0009105A9F12C813D81223031052CF48C81F0
:1000C0009D81009771F085C02C813D8122303105E2
:1000D00009F443C08C819D818330910509F45BC094
:1000E00078C0EA81FB818281882369F4AAE3B0E0C9
:1000F000EAE3F0E08081982FEA81FB81818180959D
:1001000089238C930AC0AAE3B0E0EAE3F0E090818F
:10011000EA81FB818181892B8C9319825CC0EA8101
:10012000FB818281882369F4A7E3B0E0E7E3F0E094
:100130008081982FEA81FB818181809589238C932E
:100140000AC0A7E3B0E0E7E3F0E09081EA81FB8139
:100150008181892B8C9319823EC0EA81FB81828147
:10016000882369F4A4E3B0E0E4E3F0E08081982F11
:10017000EA81FB818181809589238C930AC0A4E365
:10018000B0E0E4E3F0E09081EA81FB818181892B9A
:100190008C93198220C0EA81FB818281882369F4D3
:1001A000A1E3B0E0E1E3F0E08081982FEA81FB81F8
:1001B0008181809589238C930AC0A1E3B0E0E1E3BB
:1001C000F0E09081EA81FB818181892B8C931982F7
:1001D00002C081E0898389810F900F900F900F906A
:1001E0000F90CF91DF910895DF93CF9300D000D08F
:1001F00000D0CDB7DEB78A836B834C838A81282FEA
:1002000030E03E832D838D819E818130910581F187
:100210002D813E81223031052CF48D819E81009705
:1002200069F074C02D813E8122303105D9F18D8174
:100230009E818330910509F44FC068C08C8188236A
:1002400059F4ABE3B0E0EBE3F0E08081982F8B81D1
:10025000809589238C930AC0ABE3B0E0EBE3F0E038
:1002600020819B818C818923822B8C93198250C0A1
:100270008C81882359F4A8E3B0E0E8E3F0E08081C2
:10028000982F8B81809589238C930AC0A8E3B0E0D6
:10029000E8E3F0E020819B818C818923822B8C9381
:1002A000198236C08C81882359F4A5E3B0E0E5E3D8
:1002B000F0E08081982F8B81809589238C930AC0F0
:1002C000A5E3B0E0E5E3F0E020819B818C81892308
:1002D000822B8C9319821CC08C81882359F4A2E351
:1002E000B0E0E2E3F0E08081982F8B818095892354
:1002F0008C930AC0A2E3B0E0E2E3F0E020819B81AE
:100300008C818923822B8C93198202C081E089839E
:10031000898126960FB6F894DEBF0FBECDBFCF9170
:10032000DF910895DF93CF93CDB7DEB727970FB650
:10033000F894DEBF0FBECDBF8A836B835D834C8391
:100340008A81282F30E03F832E838E819F818130E8
:100350009105F9F02E813F81223031052CF48E81F8
:100360009F81009761F033C02E813F81223031059B
:10037000D1F08E819F8183309105F9F028C0E9E3A7
:10038000F0E090818B818923EC81FD81808319824B
:1003900020C0E6E3F0E090818B818923EC81FD8130
:1003A0008083198216C0E3E3F0E090818B8189237A
:1003B000EC81FD81808319820CC0E0E3F0E0908144
:1003C0008B818923EC81FD818083198202C081E0C9
:1003D0008983EC81FD818081882321F0EC81FD817E
:1003E0008FEF8083898127960FB6F894DEBF0FBE0A
:1003F000CDBFCF91DF910895DF93CF9300D000D090
:100400000F92CDB7DEB78A836B838A81282F30E0C5
:100410003D832C838C819D8181309105F9F02C8165
:100420003D81223031052CF48C819D81009761F053
:1004300033C02C813D8122303105D1F08C819D81EA
:1004400083309105F9F028C0ABE3B0E0EBE3F0E0D6
:1004500090818B8189278C93198220C0A8E3B0E01A
:10046000E8E3F0E090818B8189278C93198216C094
:10047000A5E3B0E0E5E3F0E090818B8189278C93E0
:1004800019820CC0A2E3B0E0E2E3F0E090818B813E
:1004900089278C93198202C081E0898389810F901A
:1004A0000F900F900F900F90CF91DF910895DF93F1
:1004B000CF93CDB7DEB764970FB6F894DEBF0FBE0B
:1004C000CDBF9A8B898B89899A89009719F481E02D
:1004D0008983EAC0E2E5F0E01082E9E5F0E010820D
:1004E000E989FA898081282F30E03C8B2B8B8B891E
:1004F0009C898230910509F464C02B893C892330A2
:10050000310554F48B899C89009799F02B893C899B
:100510002130310569F1C6C08B899C8983309105F2
:1005200009F478C02B893C892430310509F491C045
:10053000B9C0E989FA898181882F90E090936100A0
:1005400080936000E3E5F0E080E68083198281E03B
:100550008A832A8188E08B839B818FEF8C838C81B7
:100560002A839B838C83CE0102960E943E009CC00E
:10057000E989FA898181882F90E0909363008093C4
:100580006200E6E4F0E083EC99E091838083EFE49D
:10059000F0E082E88083EEE4F0E080E1808319827D
:1005A00083E08D832D8180E28E839E818FEF8F8308
:1005B0008F812D839E838F83CE0105960E943E00FE
:1005C00073C0E989FA898181882F90E09093630054
:1005D00080936200E6E4F0E083EC99E0918380830D
:1005E000EFE4F0E082E28083EEE4F0E080E18083FB
:1005F000198283E08887288580E1898799858FEF34
:100600008A878A85288799878A87CE0108960E94DB
:100610003E004AC0E989FA898181882F90E0909351
:10062000650080936400E5E4F0E080E68083198251
:1006300083E08B872B8580E88C879C858FEF8D8767
:100640008D852B879C878D87CE010B960E943E005F
:100650002BC0E989FA898181882F90E0909363000B
:1006600080936200E6E4F0E083EC99E0918380837C
:10067000EFE4F0E082EA8083EEE4F0E080E1808362
:10068000198283E08E872E8580E38F879F858FEF89
:10069000888B88892E879F87888BCE010E960E9433
:1006A0003E0002C081E08983898164960FB6F89488
:1006B000DEBF0FBECDBFCF91DF910895DF93CF9303
:1006C000CDB7DEB76D970FB6F894DEBF0FBECDBFC6
:1006D0008A836B832C833D834E835F838A81282F9B
:1006E00030E039872887888599858230910509F41B
:1006F0002EC1A885B985A330B10564F42885398554
:1007000021153105A1F0888599858130910509F47D
:1007100077C0E1C2A885B985A330B10509F4BEC18F
:10072000288539852430310509F41CC2D4C2ECE592
:10073000F0E08B81882F90E0880F991F80838C8157
:100740009D81AE81BF818A879B87AC87BD878A8563
:100750009B85AC85BD8583309105A105B105D9F197
:100760008A859B85AC85BD8584309105A105B10541
:1007700098F48A859B85AC85BD8581309105A1055E
:10078000B105E9F08A859B85AC85BD8582309105F0
:10079000A105B105D1F031C08A859B85AC85BD85A9
:1007A00084309105A105B105E1F08A859B85AC8572
:1007B000BD8585309105A105B105C9F01EC0E3E5F1
:1007C000F0E081E68083198288C2E3E5F0E082E60A
:1007D0008083198282C2E3E5F0E083E68083198298
:1007E0007CC2E3E5F0E084E68083198276C2E3E52B
:1007F000F0E085E68083198270C281E089836DC252
:10080000EAE4F0E08B81282F30E0C901880F991FBE
:10081000820F931F880F991F880F991F880F991FA8
:10082000918380838C819D81AE81BF818E879F87DC
:10083000A88BB98B8E859F85A889B989833091054E
:10084000A105B10509F450C08E859F85A889B98995
:1008500084309105A105B10598F48E859F85A889FE
:10086000B98981309105A105B105F1F08E859F858B
:10087000A889B98982309105A105B10529F164C023
:100880008E859F85A889B98984309105A105B10518
:10089000D9F18E859F85A889B98985309105A105F3
:1008A000B10509F441C050C0E6E4F0E083EC99E002
:1008B00091838083EFE4F0E082E88083EEE4F0E06F
:1008C00081E18083198209C2E6E4F0E083EC99E0DB
:1008D00091838083EFE4F0E082E88083EEE4F0E04F
:1008E00082E180831982F9C1E6E4F0E083EC99E0CB
:1008F00091838083EFE4F0E082E88083EEE4F0E02F
:1009000083E180831982E9C1E6E4F0E083EC99E0B9
:1009100091838083EFE4F0E082E88083EEE4F0E00E
:1009200084E180831982D9C1E6E4F0E083EC99E0A8
:1009300091838083EFE4F0E082E88083EEE4F0E0EE
:1009400085E180831982C9C181E08983C6C1E8E459
:10095000F0E08B81282F30E0C901880F991F820FAA
:10096000931F880F991F880F991F880F991F9183D4
:1009700080838C819D81AE81BF818A8B9B8BAC8B68
:10098000BD8B8A899B89AC89BD8983309105A1057E
:10099000B10509F450C08A899B89AC89BD8984302E
:1009A0009105A105B10598F48A899B89AC89BD8917
:1009B00081309105A105B105F1F08A899B89AC8947
:1009C000BD8982309105A105B10529F164C08A89EC
:1009D0009B89AC89BD8984309105A105B105D9F108
:1009E0008A899B89AC89BD8985309105A105B105AE
:1009F00009F441C050C0E6E4F0E083EC99E0918353
:100A00008083EFE4F0E082E28083EEE4F0E081E1D5
:100A10008083198262C1E6E4F0E083EC99E091837F
:100A20008083EFE4F0E082E28083EEE4F0E082E1B4
:100A30008083198252C1E6E4F0E083EC99E091836F
:100A40008083EFE4F0E082E28083EEE4F0E083E193
:100A50008083198242C1E6E4F0E083EC99E091835F
:100A60008083EFE4F0E082E28083EEE4F0E084E172
:100A70008083198232C1E6E4F0E083EC99E091834F
:100A80008083EFE4F0E082E28083EEE4F0E085E151
:100A90008083198222C181E089831FC1E3E4F0E0F1
:100AA0008B81882F90E0880F991F80838C819D8196
:100AB000AE81BF818E8B9F8BA88FB98F8E899F89C6
:100AC000A88DB98D84309105A105B105C9F18E8934
:100AD0009F89A88DB98D85309105A105B10598F440
:100AE0008E899F89A88DB98D81309105A105B105A9
:100AF000E9F08E899F89A88DB98D82309105A10575
:100B0000B105C9F02CC08E899F89A88DB98D86301A
:100B10009105A105B105C9F08E899F89A88DB98D70
:100B200087309105A105B105A9F019C0E5E4F0E011
:100B300081E68083D2C0E5E4F0E082E68083CDC028
:100B4000E5E4F0E083E68083C8C0E5E4F0E084E615
:100B50008083C3C0E5E4F0E085E68083BEC081E029
:100B60008983BBC0EAE4F0E08B81282F30E0C90123
:100B7000880F991F820F931F880F991F880F991F45
:100B8000880F991F91838083E8E4F0E08B81282F00
:100B900030E0C901880F991F820F931F880F991F9A
:100BA000880F991F880F991F918380838C819D8165
:100BB000AE81BF818A8F9B8FAC8FBD8F8A8D9B8DBD
:100BC000AC8DBD8D83309105A105B10509F450C0F0
:100BD0008A8D9B8DAC8DBD8D84309105A105B105AD
:100BE00098F48A8D9B8DAC8DBD8D81309105A105CA
:100BF000B105F1F08A8D9B8DAC8DBD8D8230910554
:100C0000A105B10529F164C08A8D9B8DAC8DBD8D88
:100C100084309105A105B105D9F18A8D9B8DAC8DEC
:100C2000BD8D85309105A105B10509F441C050C0C5
:100C3000E6E4F0E083EC99E091838083EFE4F0E078
:100C400082EA8083EEE4F0E081E18083198245C08E
:100C5000E6E4F0E083EC99E091838083EFE4F0E058
:100C600082EA8083EEE4F0E082E18083198235C07D
:100C7000E6E4F0E083EC99E091838083EFE4F0E038
:100C800082EA8083EEE4F0E083E18083198225C06C
:100C9000E6E4F0E083EC99E091838083EFE4F0E018
:100CA00082EA8083EEE4F0E084E18083198215C05B
:100CB000E6E4F0E083EC99E091838083EFE4F0E0F8
:100CC00082EA8083EEE4F0E085E18083198205C04A
:100CD00081E0898302C081E0898389816D960FB6A6
:100CE000F894DEBF0FBECDBFCF91DF910895DF93A3
:100CF000CF93CDB7DEB769970FB6F894DEBF0FBEBE
:100D0000CDBF8A836B832C833D834E835F838A812F
:100D1000282F30E03987288788859985813091058B
:100D200009F48AC0A885B985A230B10534F42885B4
:100D300039852115310571F051C288859985823038
:100D4000910509F429C1A885B985A330B10509F435
:100D5000D3C144C28091600090916100009719F462
:100D600081E089833DC2ECE5F0E08B81882F90E043
:100D7000880F991F80838C819D81AE81BF818A8776
:100D80009B87AC87BD878A859B85AC85BD85833075
:100D90009105A105B105D9F18A859B85AC85BD85F5
:100DA00084309105A105B10598F48A859B85AC85B1
:100DB000BD8581309105A105B105E9F08A859B8546
:100DC000AC85BD8582309105A105B105D1F031C05A
:100DD0008A859B85AC85BD8584309105A105B105CB
:100DE000E1F08A859B85AC85BD8585309105A1059F
:100DF000B105C9F01EC0E3E5F0E081E68083198209
:100E0000EFC1E3E5F0E082E680831982E9C1E3E522
:100E1000F0E083E680831982E3C1E3E5F0E084E655
:100E200080831982DDC1E3E5F0E085E680831982E5
:100E3000D7C181E08983D4C1809162009091630021
:100E4000009719F481E08983CBC1EAE4F0E08B815B
:100E5000282F30E0C901880F991F820F931F880F38
:100E6000991F880F991F880F991F918380838C8108
:100E70009D81AE81BF818E879F87A88BB98B8E8520
:100E80009F85A889B98983309105A105B10509F429
:100E900050C08E859F85A889B98984309105A105A8
:100EA000B10598F48E859F85A889B989813091050F
:100EB000A105B105F1F08E859F85A889B989823099
:100EC0009105A105B10529F164C08E859F85A8898A
:100ED000B98984309105A105B105D9F18E859F8529
:100EE000A889B98985309105A105B10509F441C0EA
:100EF00050C0E6E4F0E083EC99E091838083EFE476
:100F0000F0E082E88083EEE4F0E081E18083198202
:100F100067C1E6E4F0E083EC99E091838083EFE43D
:100F2000F0E082E88083EEE4F0E082E180831982E1
:100F300057C1E6E4F0E083EC99E091838083EFE42D
:100F4000F0E082E88083EEE4F0E083E180831982C0
:100F500047C1E6E4F0E083EC99E091838083EFE41D
:100F6000F0E082E88083EEE4F0E084E1808319829F
:100F700037C1E6E4F0E083EC99E091838083EFE40D
:100F8000F0E082E88083EEE4F0E085E1808319827E
:100F900027C181E0898324C1809162009091630020
:100FA000009719F481E089831BC1E8E4F0E08B81AC
:100FB000282F30E0C901880F991F820F931F880FD7
:100FC000991F880F991F880F991F918380838C81A7
:100FD0009D81AE81BF818A8B9B8BAC8BBD8B8A89B7
:100FE0009B89AC89BD8983309105A105B10509F4C0
:100FF00050C08A899B89AC89BD8984309105A1053F
:10100000B10598F48A899B89AC89BD8981309105A5
:10101000A105B105F1F08A899B89AC89BD8982302F
:101020009105A105B10529F164C08A899B89AC8924
:10103000BD8984309105A105B105D9F18A899B89C3
:10104000AC89BD8985309105A105B10509F441C080
:1010500050C0E6E4F0E083EC99E091838083EFE414
:10106000F0E082E28083EEE4F0E081E180831982A7
:10107000B7C0E6E4F0E083EC99E091838083EFE48D
:10108000F0E082E28083EEE4F0E082E18083198286
:10109000A7C0E6E4F0E083EC99E091838083EFE47D
:1010A000F0E082E28083EEE4F0E083E18083198265
:1010B00097C0E6E4F0E083EC99E091838083EFE46D
:1010C000F0E082E28083EEE4F0E084E18083198244
:1010D00087C0E6E4F0E083EC99E091838083EFE45D
:1010E000F0E082E28083EEE4F0E085E18083198223
:1010F00077C081E0898374C080916400909165001D
:10110000009719F481E089836BC0E3E4F0E08B8100
:10111000882F90E0880F991F80838C819D81AE81FC
:10112000BF818E8B9F8BA88FB98F8E899F89A88D49
:10113000B98D84309105A105B105D9F18E899F89BA
:10114000A88DB98D85309105A105B10598F48E89DA
:101150009F89A88DB98D81309105A105B105E9F070
:101160008E899F89A88DB98D82309105A105B10521
:10117000D1F031C08E899F89A88DB98D86309105B7
:10118000A105B105E1F08E899F89A88DB98D8730C1
:101190009105A105B105C9F01EC0E5E4F0E081E6C6
:1011A000808319821DC0E5E4F0E082E68083198225
:1011B00017C0E5E4F0E083E68083198211C0E5E41E
:1011C000F0E084E6808319820BC0E5E4F0E085E678
:1011D0008083198205C081E0898302C081E0898310
:1011E000898169960FB6F894DEBF0FBECDBFCF914F
:1011F000DF910895DF93CF9300D000D0CDB7DEB755
:101200008A838A81282F30E03C832B838B819C81C9
:1012100081309105D1F02B813C81223031052CF4B5
:101220008B819C81009761F025C02B813C8122300D
:10123000310599F08B819C8183309105B1F01AC002
:10124000E3E5F0E01082198217C0EFE4F0E01082CD
:10125000EEE4F0E0108219820FC0EFE4F0E01082BB
:10126000EEE4F0E01082198207C0E5E4F0E01082BD
:10127000198202C081E0898389810F900F900F90BD
:101280000F90CF91DF910895DF93CF9300D000D0DE
:101290000F92CDB7DEB79B838A838A819B810097AB
:1012A00019F481E0898366C0A9E5B0E0EA81FB8199
:1012B00082818C93EA81FB818081282F30E03D83FD
:1012C0002C838C819D818130910511F12C813D8190
:1012D00022303105A9F18C819D81009709F048C029
:1012E000A3E5B0E0EA81FB81818180688C93EA818B
:1012F000FB818381882F90E0909367008093660044
:10130000A9E5B0E0EA81FB8182818C93198232C029
:10131000AFE4B0E0EA81FB8181818C608C93EA814B
:10132000FB818381882F90E090936900809368000F
:10133000A9E5B0E0EA81FB8182818C9319821AC011
:10134000A5E4B0E0EA81FB81818180688C93EA8129
:10135000FB818381882F90E090936B0080936A00DB
:10136000A9E5B0E0EA81FB8182818C93198202C0F9
:1013700081E0898389810F900F900F900F900F90DB
:10138000CF91DF910895DF93CF9300D000D000D0AC
:10139000CDB7DEB78A837C836B838A81282F30E0C8
:1013A0003E832D838D819E818130910531F12D8188
:1013B0003E812230310509F447C08D819E8100971E
:1013C00009F05DC08B819C8121E08130920790F40F
:1013D000E2E5F0E08B8181958083A3E5B0E0E3E571
:1013E000F0E020818091660090916700822B8C93C1
:1013F000198247C081E0898344C0EDE4F0E08B812D
:101400009C819C0140E050E080E090E0A1E0B0E0F1
:10141000821B930BA40BB50B8070A070B070892F4A
:101420009A2FAB2FBB27A7FDBA958083ECE4F0E0A1
:101430008B8181958083EEE4F0E08091680090914B
:101440006900808319821DC08B819C8131E08130CD
:10145000930790F4E4E4F0E08B8181958083A5E428
:10146000B0E0E5E4F0E0208180916A0090916B00AB
:10147000822B8C93198205C081E0898302C081E0B0
:101480008983898126960FB6F894DEBF0FBECDBF43
:10149000CF91DF910895DF93CF9300D000D0CDB7E7
:1014A000DEB78A838A81282F30E03C832B838B81AF
:1014B0009C818130910571F02B813C812230310576
:1014C00079F08B819C81009781F4E3E5F0E0108254
:1014D00019820DC0EEE4F0E011821082198207C07B
:1014E000E5E4F0E01082198202C081E089838981FD
:1014F0000F900F900F900F90CF91DF910895DF9391
:10150000CF9300D000D000D0CDB7DEB78A837C83E4
:101510006B838A81282F30E03E832D838D819E81CD
:1015200081309105E1F02D813E812230310551F16C
:101530008D819E810097C9F5E8E5F0E08081882FD4
:1015400090E081709070882329F0EB81FC8181E02C
:10155000808303C0EB81FC811082198228C0E8E5FA
:10156000F0E08081882F90E084709070009729F0DF
:10157000EB81FC8181E0808303C0EB81FC811082E0
:10158000198215C0E8E5F0E08081882F90E0807432
:101590009070009729F0EB81FC8181E0808303C08B
:1015A000EB81FC811082198202C081E089838981EC
:1015B00026960FB6F894DEBF0FBECDBFCF91DF9158
:1015C0000895DF93CF9300D000D000D0CDB7DEB721
:1015D0008A837C836B838A81282F30E03E832D832E
:1015E0008D819E8181309105A1F02D813E81223037
:1015F0003105C9F08D819E81009701F5E2E5F0E0AB
:101600008081882F90E0EB81FC8191838083198217
:1016100017C0ECE4F0E080819181EB81FC81918343
:10162000808319820DC0E4E4F0E08081882F90E08F
:10163000EB81FC8191838083198202C081E08983E0
:10164000898126960FB6F894DEBF0FBECDBFCF912D
:10165000DF910895DF93CF9300D000D0CDB7DEB7F0
:101660008A838A81282F30E03C832B838B819C8165
:101670008130910571F02B813C812230310579F068
:101680008B819C81009781F4E2E5F0E01082198261
:101690000DC0ECE4F0E011821082198207C0E4E48E
:1016A000F0E01082198202C081E0898389810F9065
:1016B0000F900F900F90CF91DF910895DF93CF930C
:1016C000CDB7DEB727970FB6F894DEBF0FBECDBFFC
:1016D0008D83F894ABE5B0E0EBE5F0E080818064C9
:1016E0008C9383E08A832A8184E08B839B811C8294
:1016F0008C812A839B838C83CE0102960E943E00BC
:10170000982F8981892B89838D81282F30E03F8311
:101710002E838E819F8181309105E9F02E813F815A
:10172000223031052CF48E819F81009761F02BC00F
:101730002E813F8122303105B1F08E819F8183302F
:101740009105C9F020C0A5E5B0E0E5E5F0E08081B5
:101750008C7F8C931BC0A5E5B0E0E5E5F0E08081CF
:1017600084608C9313C0A5E5B0E0E5E5F0E08081EE
:1017700081608C930BC0A5E5B0E0E5E5F0E08081E9
:1017800083608C9303C08981816089837894898187
:10179000882311F4198202C081E089838981279608
:1017A0000FB6F894DEBF0FBECDBFCF91DF91089585
:1017B000DF93CF930F92CDB7DEB7F894ABE5B0E0EF
:1017C000EBE5F0E080818F7B8C93A5E5B0E0E5E56B
:1017D000F0E080818C7F8C9389810F90CF91DF9195
:1017E0000895DF93CF93CDB7DEB727970FB6F89460
:1017F000DEBF0FBECDBF8D83F894ABE5B0E0EBE567
:10180000F0E0808180688C9383E08A832A8188E07D
:101810008B839B811C828C812A839B838C83CE014A
:1018200002960E943E00982F8981892B89838D81A1
:10183000282F30E03F832E838E819F818130910558
:10184000E9F02E813F81223031052CF48E819F8179
:10185000009761F02BC02E813F8122303105B1F01D
:101860008E819F8183309105C9F020C0A5E5B0E04D
:10187000E5E5F0E08081837F8C931BC0A5E5B0E0B7
:10188000E5E5F0E0808184608C9313C0A5E5B0E0CD
:10189000E5E5F0E0808188608C930BC0A5E5B0E0C1
:1018A000E5E5F0E080818C608C9303C089818160E4
:1018B000898378948981882311F4198202C081E098
:1018C0008983898127960FB6F894DEBF0FBECDBFFE
:1018D000CF91DF910895DF93CF930F92CDB7DEB70D
:1018E000F894ABE5B0E0EBE5F0E080818F778C9386
:1018F000A5E5B0E0E5E5F0E08081837F8C93898108
:101900000F90CF91DF910895DF93CF93CDB7DEB7DE
:1019100027970FB6F894DEBF0FBECDBF8D83F89426
:10192000ABE5B0E0EBE5F0E0808180628C9381E094
:101930008A832A8184E08B839B811C828C812A8309
:101940009B838C83CE0102960E943E00982F898152
:10195000892B89838D81282F30E03F832E838E81D0
:101960009F8181309105C9F02E813F812230310560
:101970002CF48E819F81009761F023C02E813F81DE
:101980002230310571F08E819F818330910589F07D
:1019900018C089818160898317C0898181608983AA
:1019A00013C0A4E5B0E0E4E5F0E080818F7B8C9388
:1019B0000BC0A4E5B0E0E4E5F0E0808180648C93A6
:1019C00003C089818160898378948981882311F497
:1019D000198202C081E08983898127960FB6F89425
:1019E000DEBF0FBECDBFCF91DF910895DF93CF93C0
:1019F0000F92CDB7DEB7F894ABE5B0E0EBE5F0E0E1
:101A000080818F7D8C93A4E5B0E0E4E5F0E08081F7
:101A10008F7B8C9389810F90CF91DF910895DF9315
:101A2000CF9300D000D0CDB7DEB78A838A81282F2C
:101A300030E03C832B838B819C818130910541F187
:101A40002B813C81223031052CF48B819C810097C5
:101A5000F9F01BC02B813C812230310531F08B81A4
:101A60009C818330910549F010C0A4E5B0E0E4E525
:101A7000F0E080818F7B8C930BC0A4E5B0E0E4E5BF
:101A8000F0E0808180648C9303C0898181608983C8
:101A90008981882311F4198202C081E089838981B8
:101AA0000F900F900F900F90CF91DF9108951F929C
:101AB0000F920FB60F9211242F933F934F935F9382
:101AC0006F937F938F939F93AF93BF93EF93FF9306
:101AD000DF93CF93CDB7DEB780916E0090916F000A
:101AE000009729F0E0916E00F0916F000995CF9179
:101AF000DF91FF91EF91BF91AF919F918F917F9176
:101B00006F915F914F913F912F910F900FBE0F906A
:101B10001F901895DF93CF93CDB7DEB763970FB6BD
:101B2000F894DEBF0FBECDBF9F878E878E859F85C1
:101B3000009721F48981816089838EC01A824A814D
:101B40001B829B811C822C8183E08D833D8186E0FA
:101B5000FE013296DF01582F1D925A95E9F74A830C
:101B60009B832C833D8382E08887488519869985ED
:101B70001A862A8587E08B873B8586E0FE013896AA
:101B8000DF01582F1D925A95E9F7488799872A87D0
:101B90003B87EE85FF858081A82FB0E0BB8BAA8BA9
:101BA0002A893B892130310581F08A899B898230DD
:101BB000910591F0AA89BB891097A9F483E00E944E
:101BC0005E0B9981892B898311C083E00E94F10B00
:101BD0009981892B89830AC083E00E94840C9981B2
:101BE000892B898303C0898181608983EE85FF8584
:101BF0008181282F30E0398B288B88899989813021
:101C0000910599F0A889B989A230B10591F0288988
:101C1000398921153105B1F4CE0102960E9444099B
:101C2000982F8981892B898310C08981816089835C
:101C30000CC0CE0108960E944409982F8981892BF7
:101C4000898303C08981816089838981882311F414
:101C5000198202C081E08983898163960FB6F89466
:101C6000DEBF0FBECDBFCF91DF910895DF93CF933D
:101C7000CDB7DEB72B970FB6F894DEBF0FBECDBF42
:101C80008A836B835D834C838A81282F30E03B8776
:101C90002A874A855B854130510509F47EC08A85D3
:101CA0009B858230910509F47CC02A853B852115EE
:101CB000310509F0E8C08B81482F50E059874887EB
:101CC000888599858130910531F1288539852230C3
:101CD0003105E1F1488559854115510509F059C093
:101CE0008BE79FE00E94570F8091780090917900D8
:101CF0000024969587950794969587950794982F35
:101D0000802DCC01A0E0B0E0EC81FD818083918347
:101D1000A283B383BBC08BE79FE00E94570F8091E3
:101D20007400909175000024969587950794969578
:101D300087950794982F802DCC01A0E0B0E0EC812E
:101D4000FD8180839183A283B383A0C08BE79FE052
:101D50000E94570F20917800309179008091740093
:101D600090917500A901481B590BCA010024969552
:101D700087950794969587950794982F802DCC0189
:101D8000A0E0B0E0EC81FD8180839183A283B383E6
:101D90007DC089818160898379C0898181608983DF
:101DA00075C08B81282F30E03F832E834E815F8169
:101DB0004130510531F18E819F8182309105E1F1F1
:101DC0002E813F812115310509F059C08BE79FE035
:101DD0000E94570F80917800909179000024969589
:101DE00087950794969587950794982F802DCC0119
:101DF000A0E0B0E0EC81FD8180839183A283B38376
:101E000045C08BE79FE00E94570F8091740090912E
:101E10007500002496958795079496958795079465
:101E2000982F802DCC01A0E0B0E0EC81FD81808373
:101E30009183A283B3832AC08BE79FE00E94570F50
:101E40002091780030917900809174009091750014
:101E5000A901481B590BCA01002496958795079440
:101E6000969587950794982F802DCC01A0E0B0E03F
:101E7000EC81FD8180839183A283B38307C0898134
:101E80008160898303C089818160898389818823F6
:101E900011F4198202C081E0898389812B960FB6E3
:101EA000F894DEBF0FBECDBFCF91DF910895DF93D1
:101EB000CF9300D00F92CDB7DEB79B838A838A8100
:101EC0009B81009721F489818160898306C08A8182
:101ED0009B8190936F0080936E008981882311F419
:101EE000198202C081E0898389810F900F900F9041
:101EF000CF91DF910895DF93CF930F92CDB7DEB7E7
:101F0000809176008F5F809376008091760081309B
:101F1000C1F482E00E942A0B982F8981892B898342
:101F200082E060E071E00E94C309982F8981892BCB
:101F3000898382E00E940F0D982F8981892B8983E4
:101F400053C080917600823091F424E730E082E043
:101F5000B9010E94E10A982F8981892B898383E046
:101F60000E940F0D982F8981892B89833DC0809114
:101F70007600833091F428E730E082E0B9010E94D6
:101F8000E10A982F8981892B898382E00E940F0DB5
:101F9000982F8981892B898327C08091760084308E
:101FA00019F5E2E5F0E08081882F90E090937300CE
:101FB0008093720022E730E082E0B9010E94E10ADA
:101FC000982F8981892B898382E00E942A0B982F80
:101FD0008981892B898383E00E940F0D982F898145
:101FE000892B8983109276008981882311F41982C4
:101FF00002C081E089830F90CF91DF910895DF9334
:10200000CF9300D000D000D0CDB7DEB71A822A819E
:1020100081E08B839B818FEF8C838C812A839B83D0
:102020008C83CE0102960E943E0080E061E040E099
:102030000E94F40082E08D8382E08E83CE010596BB
:102040000E948A0D1982898126960FB6F894DEBF08
:102050000FBECDBFCF91DF910895DF93CF930F9245
:10206000CDB7DEB761E070E080E090E00E94DD1364
:1020700080E061E04FEF0E94F40061E070E080E0FA
:1020800090E00E94DD1380E061E040E00E94F400F7
:10209000198289810F90CF91DF910895DF93CF93BB
:1020A000CDB7DEB727970FB6F894DEBF0FBECDBF12
:1020B0009F838E839E012E5F3F4F82E061E0A901E6
:1020C0000E94360E8A819B81AC81BD812AE330E07B
:1020D00040E050E0BC01CD010E942D14DA01C9019D
:1020E000EE81FF81918380831982898127960FB6C3
:1020F000F894DEBF0FBECDBFCF91DF910895DF937F
:10210000CF93CDB7DEB72A970FB6F894DEBF0FBED8
:10211000CDBF88878885282F30E03A872987898531
:102120009A858130910531F029853A852230310533
:10213000C1F02EC0198283E08A832A8180ED8B83CF
:102140009B818FEF8C838C812A839B838C83CE0130
:1021500002960E943E0083E060ED40E00E94F400A1
:1021600019C0198283E08D832D818CE28E839E813C
:102170008FEF8F838F812D839E838F83CE01059672
:102180000E943E0083E06CE240E00E94F40002C046
:1021900081E0898389812A960FB6F894DEBF0FBE4D
:1021A000CDBFCF91DF910895DF93CF93CDB7DEB749
:1021B0002F970FB6F894DEBF0FBECDBF8887698713
:1021C0008885282F30E03F872E878E859F85813038
:1021D000910539F02E853F852230310509F44CC038
:1021E00096C0198283E08A832A8180ED8B839B814C
:1021F0008FEF8C838C812A839B838C83CE01029604
:102200000E943E008985282F30E03D872C878C85F1
:102210009D8581309105A9F02C853D8522303105C1
:10222000E1F08C859D85009721F583E060E440E036
:102230000E94F40083E060E840E00E94F40019820C
:1022400068C083E060E440E00E94F40083E060E85E
:102250004FEF0E94F40019825CC083E060E44FEF0E
:102260000E94F40083E060E840E00E94F4001982DC
:1022700050C081E089834DC0198283E08D832D8118
:102280008CE28E839E818FEF8F838F812D839E833F
:102290008F83CE0105960E943E008985282F30E06D
:1022A0003B872A878A859B8581309105A9F02A85FD
:1022B0003B8522303105E1F08A859B85009721F529
:1022C00083E064E040E00E94F40083E068E040E0E6
:1022D0000E94F40019821DC083E064E040E00E9487
:1022E000F40083E068E04FEF0E94F400198211C00F
:1022F00083E064E04FEF0E94F40083E068E040E098
:102300000E94F400198205C081E0898302C081E047
:10231000898389812F960FB6F894DEBF0FBECDBF9B
:10232000CF91DF910895DF93CF93CDB7DEB7279795
:102330000FB6F894DEBF0FBECDBF8C836D8384E0F3
:102340008A8384E08B83CE0102960E9457028C819F
:10235000282F30E03F832E838E819F81823091052C
:10236000A1F02E813F8123303105C9F08E819F81FC
:1023700081309105F1F481E06D8123E030E040E0AF
:1023800050E00E945E03198216C082E06D8123E056
:1023900030E040E050E00E945E0319820CC084E00F
:1023A0006D8123E030E040E050E00E945E0319823E
:1023B00002C081E08983898127960FB6F894DEBF39
:1023C0000FBECDBFCF91DF910895DF93CF93CDB7EF
:1023D000DEB727970FB6F894DEBF0FBECDBF8C8354
:1023E0006D8384E08A8384E08B83CE0102960E9411
:1023F00057028C81282F30E03F832E838E819F816E
:1024000082309105A1F02E813F8123303105C9F042
:102410008E819F8181309105F1F481E06D8123E00F
:1024200030E040E050E00E945E03198216C082E076
:102430006D8123E030E040E050E00E945E031982AD
:102440000CC084E06D8123E030E040E050E00E9469
:102450005E03198202C081E08983898127960FB6C5
:10246000F894DEBF0FBECDBFCF91DF910895DF930B
:10247000CF9300D000D000D0CDB7DEB78C8384E0FE
:102480008A8384E08B83CE0102960E9457028C815E
:10249000282F30E03E832D838D819E8182309105EF
:1024A00079F02D813E812330310579F08D819E8137
:1024B0008130910579F481E00E94FA0819820CC0FC
:1024C00082E00E94FA08198207C084E00E94FA089C
:1024D000198202C081E08983898126960FB6F8941B
:1024E000DEBF0FBECDBFCF91DF910895DF93CF93B5
:1024F00000D000D000D0CDB7DEB78A837C836B8359
:102500008A81282F30E03E832D838D819E8181300A
:10251000910531F02D813E812230310519F004C042
:10252000198204C0198202C081E0898389812696BC
:102530000FB6F894DEBF0FBECDBFCF91DF910895E7
:10254000DF93CF930F92CDB7DEB781E00E947F106B
:10255000898382E00E947F10898381E060E00E948D
:102560009311898382E060E00E94931189838981BD
:102570000F90CF91DF910895DF93CF9300D000D0DB
:102580000F92CDB7DEB78A836B838A81282F30E024
:102590003D832C838C819D818230910581F12C813A
:1025A0003D812330310554F48C819D81009789F061
:1025B0002C813D8121303105A1F04BC08C819D8162
:1025C0008330910551F12C813D812430310599F101
:1025D00040C081E00E94371282E00E9437121982C7
:1025E0003AC081E061E00E94D41082E061E00E9484
:1025F000D41083E06B810E94E51119822CC081E028
:1026000062E00E94D41082E062E00E94D41083E075
:102610006B810E94E51119821EC081E062E00E9478
:10262000D41082E061E00E94D41082E06B810E94AD
:10263000E511198210C081E061E00E94D41082E0AF
:1026400062E00E94D41081E06B810E94E511198242
:1026500002C081E0898389810F900F900F900F90C5
:102660000F90CF91DF910895DF93CF930F92CDB765
:10267000DEB70E94FF0F982F8981892B89830E94E2
:10268000A012982F8981892B898381E060E50E94BF
:10269000BC12982F8981892B89838981882311F421
:1026A000198202C081E0898389810F90CF91DF91E7
:1026B0000895DF93CF9300D000D000D0CDB7DEB720
:1026C0000E942D10982F8A81892B8A83CE01039630
:1026D0000E944E10982F8A81892B8A838B819C813E
:1026E000009739F08B819C818A31910510F4198211
:1026F00014C08B819C818A31910540F08B819C8133
:102700008432910518F481E0898307C08B819C8114
:102710008432910510F082E089838981282F30E08E
:102720003E832D838D819E818130910589F02D819D
:102730003E8122303105D1F08D819E810097E9F4F0
:1027400081E06EE10E94BC129A81892B8A8315C0B8
:1027500083E064E60E94BC129A81892B8A8364EF2D
:1027600071E080E090E00E94DD1307C082E06EE13E
:102770000E94BC129A81892B8A8364E670E080E013
:1027800090E00E94DD138A81882311F41A8202C02E
:1027900081E08A838A8126960FB6F894DEBF0FBE49
:1027A000CDBFCF91DF910895DF93CF93CDB7DEB743
:1027B0000E9434130E945913FDCFDF93CF93CDB7FE
:1027C000DEB72C970FB6F894DEBF0FBECDBF69877A
:1027D0007A878B879C871D821E821F82188627C05E
:1027E00019821A821B821C820BC089819A81AB815B
:1027F000BC810196A11DB11D89839A83AB83BC83E3
:1028000089819A81AB81BC81813B21E0920720E0E4
:10281000A20720E0B20748F38D819E81AF81B88581
:102820000196A11DB11D8D839E83AF83B8872D8135
:102830003E814F81588589859A85AB85BC8528174F
:1028400039074A075B0760F22C960FB6F894DEBF93
:102850000FBECDBFCF91DF910895A1E21A2EAA1B22
:10286000BB1BFD010DC0AA1FBB1FEE1FFF1FA21740
:10287000B307E407F50720F0A21BB30BE40BF50B3D
:10288000661F771F881F991F1A9469F760957095C6
:10289000809590959B01AC01BD01CF010895F894FE
:0228A000FFCF68
:00000001FF
